{
  "contractName": "ArbitrageBot",
  "abi": [
    {
      "inputs": [
        {
          "internalType": "contract ISwapRouter",
          "name": "_Router1",
          "type": "address"
        },
        {
          "internalType": "address",
          "name": "_Router2",
          "type": "address"
        }
      ],
      "stateMutability": "nonpayable",
      "type": "constructor"
    },
    {
      "anonymous": false,
      "inputs": [
        {
          "indexed": false,
          "internalType": "string",
          "name": "assest",
          "type": "string"
        },
        {
          "indexed": false,
          "internalType": "string",
          "name": "base",
          "type": "string"
        },
        {
          "indexed": false,
          "internalType": "uint256",
          "name": "profit",
          "type": "uint256"
        },
        {
          "indexed": false,
          "internalType": "bool",
          "name": "success",
          "type": "bool"
        }
      ],
      "name": "TradeSucces",
      "type": "event"
    },
    {
      "inputs": [],
      "name": "Router2",
      "outputs": [
        {
          "internalType": "address",
          "name": "",
          "type": "address"
        }
      ],
      "stateMutability": "view",
      "type": "function"
    },
    {
      "inputs": [],
      "name": "name",
      "outputs": [
        {
          "internalType": "string",
          "name": "",
          "type": "string"
        }
      ],
      "stateMutability": "view",
      "type": "function"
    },
    {
      "inputs": [],
      "name": "owner",
      "outputs": [
        {
          "internalType": "address",
          "name": "",
          "type": "address"
        }
      ],
      "stateMutability": "view",
      "type": "function"
    },
    {
      "inputs": [],
      "name": "poolFee",
      "outputs": [
        {
          "internalType": "uint24",
          "name": "",
          "type": "uint24"
        }
      ],
      "stateMutability": "view",
      "type": "function"
    },
    {
      "inputs": [],
      "name": "swapRouter",
      "outputs": [
        {
          "internalType": "contract ISwapRouter",
          "name": "",
          "type": "address"
        }
      ],
      "stateMutability": "view",
      "type": "function"
    },
    {
      "stateMutability": "payable",
      "type": "receive"
    },
    {
      "inputs": [
        {
          "internalType": "address",
          "name": "_router",
          "type": "address"
        },
        {
          "internalType": "address",
          "name": "_token1",
          "type": "address"
        },
        {
          "internalType": "address",
          "name": "_token2",
          "type": "address"
        },
        {
          "internalType": "uint256",
          "name": "_amount",
          "type": "uint256"
        }
      ],
      "name": "getAmountOutMin",
      "outputs": [
        {
          "internalType": "uint256",
          "name": "",
          "type": "uint256"
        }
      ],
      "stateMutability": "view",
      "type": "function"
    },
    {
      "inputs": [
        {
          "internalType": "address",
          "name": "_pairAddress",
          "type": "address"
        }
      ],
      "name": "getSushiswapReserve",
      "outputs": [
        {
          "internalType": "uint256",
          "name": "",
          "type": "uint256"
        },
        {
          "internalType": "uint256",
          "name": "",
          "type": "uint256"
        },
        {
          "internalType": "uint256",
          "name": "",
          "type": "uint256"
        }
      ],
      "stateMutability": "view",
      "type": "function"
    },
    {
      "inputs": [
        {
          "internalType": "address",
          "name": "_token1",
          "type": "address"
        },
        {
          "internalType": "address",
          "name": "_token2",
          "type": "address"
        }
      ],
      "name": "UniswapToSushiwapTrade",
      "outputs": [],
      "stateMutability": "nonpayable",
      "type": "function"
    },
    {
      "inputs": [
        {
          "internalType": "address",
          "name": "_token1",
          "type": "address"
        },
        {
          "internalType": "address",
          "name": "_token2",
          "type": "address"
        }
      ],
      "name": "SushiwapToUniswapTrade",
      "outputs": [],
      "stateMutability": "nonpayable",
      "type": "function"
    },
    {
      "inputs": [
        {
          "internalType": "address",
          "name": "_tokenContractAddress",
          "type": "address"
        }
      ],
      "name": "getBalance",
      "outputs": [
        {
          "internalType": "uint256",
          "name": "",
          "type": "uint256"
        }
      ],
      "stateMutability": "view",
      "type": "function"
    },
    {
      "inputs": [],
      "name": "recoverEth",
      "outputs": [],
      "stateMutability": "nonpayable",
      "type": "function"
    },
    {
      "inputs": [
        {
          "internalType": "address",
          "name": "tokenAddress",
          "type": "address"
        }
      ],
      "name": "recoverTokens",
      "outputs": [],
      "stateMutability": "nonpayable",
      "type": "function"
    }
  ],
  "bytecode": "0x60806040523480156200001157600080fd5b5060405162002763380380620027638339818101604052810190620000379190620001f8565b81600160006101000a81548173ffffffffffffffffffffffffffffffffffffffff021916908373ffffffffffffffffffffffffffffffffffffffff16021790555080600260006101000a81548173ffffffffffffffffffffffffffffffffffffffff021916908373ffffffffffffffffffffffffffffffffffffffff1602179055506040518060400160405280600d81526020017f41726269747261676520426f740000000000000000000000000000000000000081525060009081620000ff9190620004b9565b5033600560006101000a81548173ffffffffffffffffffffffffffffffffffffffff021916908373ffffffffffffffffffffffffffffffffffffffff1602179055505050620005a0565b600080fd5b600073ffffffffffffffffffffffffffffffffffffffff82169050919050565b60006200017b826200014e565b9050919050565b60006200018f826200016e565b9050919050565b620001a18162000182565b8114620001ad57600080fd5b50565b600081519050620001c18162000196565b92915050565b620001d2816200016e565b8114620001de57600080fd5b50565b600081519050620001f281620001c7565b92915050565b6000806040838503121562000212576200021162000149565b5b60006200022285828601620001b0565b92505060206200023585828601620001e1565b9150509250929050565b600081519050919050565b7f4e487b7100000000000000000000000000000000000000000000000000000000600052604160045260246000fd5b7f4e487b7100000000000000000000000000000000000000000000000000000000600052602260045260246000fd5b60006002820490506001821680620002c157607f821691505b602082108103620002d757620002d662000279565b5b50919050565b60008190508160005260206000209050919050565b60006020601f8301049050919050565b600082821b905092915050565b600060088302620003417fffffffffffffffffffffffffffffffffffffffffffffffffffffffffffffffff8262000302565b6200034d868362000302565b95508019841693508086168417925050509392505050565b6000819050919050565b6000819050919050565b60006200039a620003946200038e8462000365565b6200036f565b62000365565b9050919050565b6000819050919050565b620003b68362000379565b620003ce620003c582620003a1565b8484546200030f565b825550505050565b600090565b620003e5620003d6565b620003f2818484620003ab565b505050565b5b818110156200041a576200040e600082620003db565b600181019050620003f8565b5050565b601f82111562000469576200043381620002dd565b6200043e84620002f2565b810160208510156200044e578190505b620004666200045d85620002f2565b830182620003f7565b50505b505050565b600082821c905092915050565b60006200048e600019846008026200046e565b1980831691505092915050565b6000620004a983836200047b565b9150826002028217905092915050565b620004c4826200023f565b67ffffffffffffffff811115620004e057620004df6200024a565b5b620004ec8254620002a8565b620004f98282856200041e565b600060209050601f8311600181146200053157600084156200051c578287015190505b6200052885826200049b565b86555062000598565b601f1984166200054186620002dd565b60005b828110156200056b5784890151825560018201915060208501945060208101905062000544565b868310156200058b578489015162000587601f8916826200047b565b8355505b6001600288020188555050505b505050505050565b6121b380620005b06000396000f3fe6080604052600436106100ab5760003560e01c806343cf6f241161006457806343cf6f241461021e5780638da5cb5b1461025b578063a3386b0314610286578063bcdb446b146102af578063c31c9c07146102c6578063f8b2cb4f146102f157610107565b806306fdde031461010c578063089fe6aa146101375780630dff5ed51461016257806316114acd146101a1578063314e04f3146101ca57806331fa58d4146101f357610107565b366101075734600760003373ffffffffffffffffffffffffffffffffffffffff1673ffffffffffffffffffffffffffffffffffffffff16815260200190815260200160002060008282546100ff9190611587565b925050819055005b600080fd5b34801561011857600080fd5b5061012161032e565b60405161012e919061164b565b60405180910390f35b34801561014357600080fd5b5061014c6103bc565b604051610159919061168b565b60405180910390f35b34801561016e57600080fd5b5061018960048036038101906101849190611718565b6103c2565b60405161019893929190611754565b60405180910390f35b3480156101ad57600080fd5b506101c860048036038101906101c39190611718565b610479565b005b3480156101d657600080fd5b506101f160048036038101906101ec919061178b565b61060a565b005b3480156101ff57600080fd5b5061020861095c565b60405161021591906117da565b60405180910390f35b34801561022a57600080fd5b5061024560048036038101906102409190611821565b610982565b6040516102529190611888565b60405180910390f35b34801561026757600080fd5b50610270610b29565b60405161027d91906117da565b60405180910390f35b34801561029257600080fd5b506102ad60048036038101906102a8919061178b565b610b4f565b005b3480156102bb57600080fd5b506102c4610ea1565b005b3480156102d257600080fd5b506102db610f7a565b6040516102e89190611902565b60405180910390f35b3480156102fd57600080fd5b5061031860048036038101906103139190611718565b610fa0565b6040516103259190611888565b60405180910390f35b6000805461033b9061194c565b80601f01602080910402602001604051908101604052809291908181526020018280546103679061194c565b80156103b45780601f10610389576101008083540402835291602001916103b4565b820191906000526020600020905b81548152906001019060200180831161039757829003601f168201915b505050505081565b610bb881565b6000806000806000808673ffffffffffffffffffffffffffffffffffffffff16630902f1ac6040518163ffffffff1660e01b8152600401606060405180830381865afa158015610416573d6000803e3d6000fd5b505050506040513d601f19601f8201168201806040525081019061043a91906119ff565b63ffffffff1692506dffffffffffffffffffffffffffff1692506dffffffffffffffffffffffffffff1692508282829550955095505050509193909250565b600560009054906101000a900473ffffffffffffffffffffffffffffffffffffffff1673ffffffffffffffffffffffffffffffffffffffff163373ffffffffffffffffffffffffffffffffffffffff1614610509576040517f08c379a000000000000000000000000000000000000000000000000000000000815260040161050090611a78565b60405180910390fd5b60008190508073ffffffffffffffffffffffffffffffffffffffff1663a9059cbb338373ffffffffffffffffffffffffffffffffffffffff166370a08231306040518263ffffffff1660e01b815260040161056491906117da565b602060405180830381865afa158015610581573d6000803e3d6000fd5b505050506040513d601f19601f820116820180604052508101906105a59190611aad565b6040518363ffffffff1660e01b81526004016105c2929190611ada565b6020604051808303816000875af11580156105e1573d6000803e3d6000fd5b505050506040513d601f19601f820116820180604052508101906106059190611b3b565b505050565b600560009054906101000a900473ffffffffffffffffffffffffffffffffffffffff1673ffffffffffffffffffffffffffffffffffffffff163373ffffffffffffffffffffffffffffffffffffffff161461069a576040517f08c379a000000000000000000000000000000000000000000000000000000000815260040161069190611a78565b60405180910390fd5b60008273ffffffffffffffffffffffffffffffffffffffff166370a08231306040518263ffffffff1660e01b81526004016106d591906117da565b602060405180830381865afa1580156106f2573d6000803e3d6000fd5b505050506040513d601f19601f820116820180604052508101906107169190611aad565b905060008273ffffffffffffffffffffffffffffffffffffffff166370a08231306040518263ffffffff1660e01b815260040161075391906117da565b602060405180830381865afa158015610770573d6000803e3d6000fd5b505050506040513d601f19601f820116820180604052508101906107949190611aad565b90506107c4600160009054906101000a900473ffffffffffffffffffffffffffffffffffffffff16858585611028565b5060008373ffffffffffffffffffffffffffffffffffffffff166370a08231306040518263ffffffff1660e01b815260040161080091906117da565b602060405180830381865afa15801561081d573d6000803e3d6000fd5b505050506040513d601f19601f820116820180604052508101906108419190611aad565b9050600082826108519190611b68565b9050610881600260009054906101000a900473ffffffffffffffffffffffffffffffffffffffff168688846111e5565b60008673ffffffffffffffffffffffffffffffffffffffff166370a08231306040518263ffffffff1660e01b81526004016108bc91906117da565b602060405180830381865afa1580156108d9573d6000803e3d6000fd5b505050506040513d601f19601f820116820180604052508101906108fd9190611aad565b9050848161090b9190611b68565b6006819055507f34869f9170b7cd7feed82302929f46dc31417cc806c8bf12091d690b8cb02c1e60046003600654600160405161094b9493929190611c44565b60405180910390a150505050505050565b600260009054906101000a900473ffffffffffffffffffffffffffffffffffffffff1681565b60006060600267ffffffffffffffff8111156109a1576109a0611c97565b5b6040519080825280602002602001820160405280156109cf5781602001602082028036833780820191505090505b50905084816000815181106109e7576109e6611cc6565b5b602002602001019073ffffffffffffffffffffffffffffffffffffffff16908173ffffffffffffffffffffffffffffffffffffffff16815250508381600181518110610a3657610a35611cc6565b5b602002602001019073ffffffffffffffffffffffffffffffffffffffff16908173ffffffffffffffffffffffffffffffffffffffff168152505060008673ffffffffffffffffffffffffffffffffffffffff1663d06ca61f85846040518363ffffffff1660e01b8152600401610aad929190611db3565b600060405180830381865afa158015610aca573d6000803e3d6000fd5b505050506040513d6000823e3d601f19601f82011682018060405250810190610af39190611efc565b90508060018351610b049190611b68565b81518110610b1557610b14611cc6565b5b602002602001015192505050949350505050565b600560009054906101000a900473ffffffffffffffffffffffffffffffffffffffff1681565b600560009054906101000a900473ffffffffffffffffffffffffffffffffffffffff1673ffffffffffffffffffffffffffffffffffffffff163373ffffffffffffffffffffffffffffffffffffffff1614610bdf576040517f08c379a0000000000000000000000000000000000000000000000000000000008152600401610bd690611a78565b60405180910390fd5b60008273ffffffffffffffffffffffffffffffffffffffff166370a08231306040518263ffffffff1660e01b8152600401610c1a91906117da565b602060405180830381865afa158015610c37573d6000803e3d6000fd5b505050506040513d601f19601f82011682018060405250810190610c5b9190611aad565b905060008273ffffffffffffffffffffffffffffffffffffffff166370a08231306040518263ffffffff1660e01b8152600401610c9891906117da565b602060405180830381865afa158015610cb5573d6000803e3d6000fd5b505050506040513d601f19601f82011682018060405250810190610cd99190611aad565b9050610d09600260009054906101000a900473ffffffffffffffffffffffffffffffffffffffff168585856111e5565b60008373ffffffffffffffffffffffffffffffffffffffff166370a08231306040518263ffffffff1660e01b8152600401610d4491906117da565b602060405180830381865afa158015610d61573d6000803e3d6000fd5b505050506040513d601f19601f82011682018060405250810190610d859190611aad565b905060008282610d959190611b68565b9050610dc5600160009054906101000a900473ffffffffffffffffffffffffffffffffffffffff16868884611028565b5060008673ffffffffffffffffffffffffffffffffffffffff166370a08231306040518263ffffffff1660e01b8152600401610e0191906117da565b602060405180830381865afa158015610e1e573d6000803e3d6000fd5b505050506040513d601f19601f82011682018060405250810190610e429190611aad565b90508481610e509190611b68565b6006819055507f34869f9170b7cd7feed82302929f46dc31417cc806c8bf12091d690b8cb02c1e600460036006546001604051610e909493929190611c44565b60405180910390a150505050505050565b600560009054906101000a900473ffffffffffffffffffffffffffffffffffffffff1673ffffffffffffffffffffffffffffffffffffffff163373ffffffffffffffffffffffffffffffffffffffff1614610f31576040517f08c379a0000000000000000000000000000000000000000000000000000000008152600401610f2890611a78565b60405180910390fd5b3373ffffffffffffffffffffffffffffffffffffffff166108fc479081150290604051600060405180830381858888f19350505050158015610f77573d6000803e3d6000fd5b50565b600160009054906101000a900473ffffffffffffffffffffffffffffffffffffffff1681565b6000808273ffffffffffffffffffffffffffffffffffffffff166370a08231306040518263ffffffff1660e01b8152600401610fdc91906117da565b602060405180830381865afa158015610ff9573d6000803e3d6000fd5b505050506040513d601f19601f8201168201806040525081019061101d9190611aad565b905080915050919050565b60006110358486846113f9565b8373ffffffffffffffffffffffffffffffffffffffff1663dd62ed3e30876040518363ffffffff1660e01b8152600401611070929190611f45565b602060405180830381865afa15801561108d573d6000803e3d6000fd5b505050506040513d601f19601f820116820180604052508101906110b19190611aad565b5060006040518061010001604052808673ffffffffffffffffffffffffffffffffffffffff1681526020018573ffffffffffffffffffffffffffffffffffffffff168152602001610bb862ffffff1681526020013073ffffffffffffffffffffffffffffffffffffffff1681526020016104b04261112f9190611587565b815260200184815260200160008152602001600073ffffffffffffffffffffffffffffffffffffffff1681525090508573ffffffffffffffffffffffffffffffffffffffff1663414bf389826040518263ffffffff1660e01b8152600401611197919061203d565b6020604051808303816000875af11580156111b6573d6000803e3d6000fd5b505050506040513d601f19601f820116820180604052508101906111da9190611aad565b915050949350505050565b8273ffffffffffffffffffffffffffffffffffffffff1663095ea7b385836040518363ffffffff1660e01b8152600401611220929190611ada565b6020604051808303816000875af115801561123f573d6000803e3d6000fd5b505050506040513d601f19601f820116820180604052508101906112639190611b3b565b506060600267ffffffffffffffff81111561128157611280611c97565b5b6040519080825280602002602001820160405280156112af5781602001602082028036833780820191505090505b50905083816000815181106112c7576112c6611cc6565b5b602002602001019073ffffffffffffffffffffffffffffffffffffffff16908173ffffffffffffffffffffffffffffffffffffffff1681525050828160018151811061131657611315611cc6565b5b602002602001019073ffffffffffffffffffffffffffffffffffffffff16908173ffffffffffffffffffffffffffffffffffffffff16815250508473ffffffffffffffffffffffffffffffffffffffff166338ed17398361137988888888610982565b84306104b0426113899190611587565b6040518663ffffffff1660e01b81526004016113a9959493929190612059565b6000604051808303816000875af11580156113c8573d6000803e3d6000fd5b505050506040513d6000823e3d601f19601f820116820180604052508101906113f19190611efc565b505050505050565b6000808473ffffffffffffffffffffffffffffffffffffffff1663095ea7b360e01b858560405160240161142e929190611ada565b604051602081830303815290604052907bffffffffffffffffffffffffffffffffffffffffffffffffffffffff19166020820180517bffffffffffffffffffffffffffffffffffffffffffffffffffffffff838183161783525050505060405161149891906120fa565b6000604051808303816000865af19150503d80600081146114d5576040519150601f19603f3d011682016040523d82523d6000602084013e6114da565b606091505b509150915081801561150857506000815114806115075750808060200190518101906115069190611b3b565b5b5b611547576040517f08c379a000000000000000000000000000000000000000000000000000000000815260040161153e9061215d565b60405180910390fd5b5050505050565b6000819050919050565b7f4e487b7100000000000000000000000000000000000000000000000000000000600052601160045260246000fd5b60006115928261154e565b915061159d8361154e565b92508282019050808211156115b5576115b4611558565b5b92915050565b600081519050919050565b600082825260208201905092915050565b60005b838110156115f55780820151818401526020810190506115da565b60008484015250505050565b6000601f19601f8301169050919050565b600061161d826115bb565b61162781856115c6565b93506116378185602086016115d7565b61164081611601565b840191505092915050565b600060208201905081810360008301526116658184611612565b905092915050565b600062ffffff82169050919050565b6116858161166d565b82525050565b60006020820190506116a0600083018461167c565b92915050565b6000604051905090565b600080fd5b600080fd5b600073ffffffffffffffffffffffffffffffffffffffff82169050919050565b60006116e5826116ba565b9050919050565b6116f5816116da565b811461170057600080fd5b50565b600081359050611712816116ec565b92915050565b60006020828403121561172e5761172d6116b0565b5b600061173c84828501611703565b91505092915050565b61174e8161154e565b82525050565b60006060820190506117696000830186611745565b6117766020830185611745565b6117836040830184611745565b949350505050565b600080604083850312156117a2576117a16116b0565b5b60006117b085828601611703565b92505060206117c185828601611703565b9150509250929050565b6117d4816116da565b82525050565b60006020820190506117ef60008301846117cb565b92915050565b6117fe8161154e565b811461180957600080fd5b50565b60008135905061181b816117f5565b92915050565b6000806000806080858703121561183b5761183a6116b0565b5b600061184987828801611703565b945050602061185a87828801611703565b935050604061186b87828801611703565b925050606061187c8782880161180c565b91505092959194509250565b600060208201905061189d6000830184611745565b92915050565b6000819050919050565b60006118c86118c36118be846116ba565b6118a3565b6116ba565b9050919050565b60006118da826118ad565b9050919050565b60006118ec826118cf565b9050919050565b6118fc816118e1565b82525050565b600060208201905061191760008301846118f3565b92915050565b7f4e487b7100000000000000000000000000000000000000000000000000000000600052602260045260246000fd5b6000600282049050600182168061196457607f821691505b6020821081036119775761197661191d565b5b50919050565b60006dffffffffffffffffffffffffffff82169050919050565b6119a08161197d565b81146119ab57600080fd5b50565b6000815190506119bd81611997565b92915050565b600063ffffffff82169050919050565b6119dc816119c3565b81146119e757600080fd5b50565b6000815190506119f9816119d3565b92915050565b600080600060608486031215611a1857611a176116b0565b5b6000611a26868287016119ae565b9350506020611a37868287016119ae565b9250506040611a48868287016119ea565b9150509250925092565b50565b6000611a626000836115c6565b9150611a6d82611a52565b600082019050919050565b60006020820190508181036000830152611a9181611a55565b9050919050565b600081519050611aa7816117f5565b92915050565b600060208284031215611ac357611ac26116b0565b5b6000611ad184828501611a98565b91505092915050565b6000604082019050611aef60008301856117cb565b611afc6020830184611745565b9392505050565b60008115159050919050565b611b1881611b03565b8114611b2357600080fd5b50565b600081519050611b3581611b0f565b92915050565b600060208284031215611b5157611b506116b0565b5b6000611b5f84828501611b26565b91505092915050565b6000611b738261154e565b9150611b7e8361154e565b9250828203905081811115611b9657611b95611558565b5b92915050565b60008190508160005260206000209050919050565b60008154611bbe8161194c565b611bc881866115c6565b94506001821660008114611be35760018114611bf957611c2c565b60ff198316865281151560200286019350611c2c565b611c0285611b9c565b60005b83811015611c2457815481890152600182019150602081019050611c05565b808801955050505b50505092915050565b611c3e81611b03565b82525050565b60006080820190508181036000830152611c5e8187611bb1565b90508181036020830152611c728186611bb1565b9050611c816040830185611745565b611c8e6060830184611c35565b95945050505050565b7f4e487b7100000000000000000000000000000000000000000000000000000000600052604160045260246000fd5b7f4e487b7100000000000000000000000000000000000000000000000000000000600052603260045260246000fd5b600081519050919050565b600082825260208201905092915050565b6000819050602082019050919050565b611d2a816116da565b82525050565b6000611d3c8383611d21565b60208301905092915050565b6000602082019050919050565b6000611d6082611cf5565b611d6a8185611d00565b9350611d7583611d11565b8060005b83811015611da6578151611d8d8882611d30565b9750611d9883611d48565b925050600181019050611d79565b5085935050505092915050565b6000604082019050611dc86000830185611745565b8181036020830152611dda8184611d55565b90509392505050565b600080fd5b611df182611601565b810181811067ffffffffffffffff82111715611e1057611e0f611c97565b5b80604052505050565b6000611e236116a6565b9050611e2f8282611de8565b919050565b600067ffffffffffffffff821115611e4f57611e4e611c97565b5b602082029050602081019050919050565b600080fd5b6000611e78611e7384611e34565b611e19565b90508083825260208201905060208402830185811115611e9b57611e9a611e60565b5b835b81811015611ec45780611eb08882611a98565b845260208401935050602081019050611e9d565b5050509392505050565b600082601f830112611ee357611ee2611de3565b5b8151611ef3848260208601611e65565b91505092915050565b600060208284031215611f1257611f116116b0565b5b600082015167ffffffffffffffff811115611f3057611f2f6116b5565b5b611f3c84828501611ece565b91505092915050565b6000604082019050611f5a60008301856117cb565b611f6760208301846117cb565b9392505050565b611f778161166d565b82525050565b611f868161154e565b82525050565b611f95816116ba565b82525050565b61010082016000820151611fb26000850182611d21565b506020820151611fc56020850182611d21565b506040820151611fd86040850182611f6e565b506060820151611feb6060850182611d21565b506080820151611ffe6080850182611f7d565b5060a082015161201160a0850182611f7d565b5060c082015161202460c0850182611f7d565b5060e082015161203760e0850182611f8c565b50505050565b6000610100820190506120536000830184611f9b565b92915050565b600060a08201905061206e6000830188611745565b61207b6020830187611745565b818103604083015261208d8186611d55565b905061209c60608301856117cb565b6120a96080830184611745565b9695505050505050565b600081519050919050565b600081905092915050565b60006120d4826120b3565b6120de81856120be565b93506120ee8185602086016115d7565b80840191505092915050565b600061210682846120c9565b915081905092915050565b7f5341000000000000000000000000000000000000000000000000000000000000600082015250565b60006121476002836115c6565b915061215282612111565b602082019050919050565b600060208201905081810360008301526121768161213a565b905091905056fea26469706673582212201812807a56e9bd3e1ace68792f6f9dcf6f573e7bafd5b06659bb493dc912004664736f6c63430008100033",
  "immutableReferences": {},
  "source": "//SPDX-License-Identifier: UNLICENSED\r\npragma solidity >=0.7.0 <0.9.0;\r\npragma abicoder v2;\r\n\r\n\r\nimport \"@uniswap/v3-core/contracts/interfaces/pool/IUniswapV3PoolImmutables.sol\";\r\nimport '@uniswap/v3-periphery/contracts/interfaces/ISwapRouter.sol';\r\nimport '@uniswap/v3-periphery/contracts/libraries/TransferHelper.sol';\r\nimport  '@uniswap/v2-periphery/contracts/interfaces/IUniswapV2Router02.sol';\r\nimport '@uniswap/v2-core/contracts/interfaces/IUniswapV2Pair.sol';\r\nimport '@uniswap/v2-periphery/contracts/interfaces/IUniswapV2Router01.sol';\r\nimport '@uniswap/v2-core/contracts/interfaces/IUniswapV2Factory.sol';\r\nimport \"@uniswap/v3-core/contracts/interfaces/IERC20Minimal.sol\";\r\nimport \"@uniswap/v2-core/contracts/interfaces/IUniswapV2Pair.sol\";\r\n\r\ncontract ArbitrageBot {\r\n  string public name;\r\n  ISwapRouter public swapRouter;\r\n  address public Router2;\r\n \r\n\r\n\r\n    uint constant deadline = 20 minutes; // transaction deadline\r\n   \r\n    string base;\r\n    string assest;\r\n    address public owner;\r\n    uint profit;\r\n\r\n    \r\n  // For this example, we will set the pool fee to 0.3%.\r\n  uint24 public constant poolFee = 3000;\r\n\r\n  \r\n     event TradeSucces(\r\n          string assest,\r\n          string base,\r\n          uint profit,\r\n          bool success\r\n     );\r\n\r\n\r\n      mapping(address => uint) _balance;\r\n      \r\n     \r\n\r\n\r\n  constructor( ISwapRouter _Router1, address _Router2) {\r\n      swapRouter = _Router1;\r\n      Router2 = _Router2;\r\n      name=\"Arbitrage Bot\";\r\n     \r\n      owner=msg.sender;\r\n\r\n  }\r\n   modifier onlyOwner(){\r\n      require(msg.sender==owner,\"\");\r\n          _;\r\n     }\r\n\r\n   function getAmountOutMin( address _router,address _token1, address _token2, uint256 _amount)  public view returns (uint256) {\r\n\t      \taddress[] memory path;\r\n\t      \tpath = new address[](2);\r\n\t      \tpath[0] = _token1;\r\n\t      \tpath[1] = _token2;\r\n\t      \tuint256[] memory amountOutMins = IUniswapV2Router02(address(_router)).getAmountsOut(_amount, path);\r\n\t      \t\r\n            return  amountOutMins[path.length -1];\r\n             \r\n      }\r\n\r\n  function getSushiswapReserve(address _pairAddress) public view returns(uint, uint, uint){\r\n      (uint reserve1,uint reserve2,uint time)=IUniswapV2Pair(address(_pairAddress)).getReserves();\r\n     \r\n      return (reserve1,reserve2,time);\r\n\r\n  }\r\n\r\n     // for uniswap\r\n  function swapExactInputSingle(ISwapRouter _swapRouter,address _tokenIn, address _tokenOut,uint256 _amountIn) internal returns (uint256 amountOut) {\r\n      \r\n\r\n      // Transfer the specified amount of DAI to this contract.\r\n     // TransferHelper.safeTransferFrom(_tokenIn, msg.sender, address(this), _amountIn);\r\n\r\n      // Approve the router to spend DAI.\r\n      TransferHelper.safeApprove(_tokenIn, address(_swapRouter), _amountIn);\r\n        IERC20Minimal(_tokenIn).allowance(address(this), address(_swapRouter));\r\n      // Naively set amountOutMinimum to 0. In production, use an oracle or other data source to choose a safer value for amountOutMinimum.\r\n      // We also set the sqrtPriceLimitx96 to be 0 to ensure we swap our exact input amount.\r\n      ISwapRouter.ExactInputSingleParams memory params =\r\n          ISwapRouter.ExactInputSingleParams({\r\n              tokenIn: _tokenIn,\r\n              tokenOut: _tokenOut,\r\n              fee: poolFee,\r\n              recipient: address(this),\r\n              deadline: block.timestamp + deadline,\r\n              amountIn:_amountIn,\r\n              amountOutMinimum:0,\r\n              sqrtPriceLimitX96: 0\r\n          });\r\n\r\n      // The call to `exactInputSingle` executes the swap.\r\n      amountOut = _swapRouter.exactInputSingle(params);\r\n  }\r\n      // for sushiswap\r\n  \r\n\tfunction SushiswapToken(address _router, address _tokenIn, address _tokenOut, uint256 _amountIn) private {\r\n\t   TransferHelper.safeApprove(_tokenIn, address(_router), _amountIn);\r\n        IERC20Minimal(_tokenIn).allowance(address(this), address(_router));\r\n\t\taddress[] memory path;\r\n\t\tpath = new address[](2);\r\n\t\tpath[0] = _tokenIn;\r\n\t\tpath[1] = _tokenOut;\r\n      \r\n\t\r\n\t\tIUniswapV2Router02(_router).swapExactTokensForETH(_amountIn,0, path, address(this), block.timestamp + deadline);\r\n\t}\r\n    function swapToken(address _router, address _tokenIn, address _tokenOut, uint256 _amountIn) private {\r\n\t\tIERC20Minimal(_tokenIn).approve(_router, _amountIn);\r\n\t\taddress[] memory path;\r\n\t\tpath = new address[](2);\r\n\t\tpath[0] = _tokenIn;\r\n\t\tpath[1] = _tokenOut;\r\n\t\r\n\t\tIUniswapV2Router02(_router).swapExactTokensForTokens(_amountIn, getAmountOutMin(_router,_tokenIn,_tokenOut,_amountIn), path, address(this), block.timestamp + deadline);\r\n\t}\r\n\r\n   function UniswapToSushiwapTrade(address _token1, address _token2) external onlyOwner {\r\n        uint startBalance = IERC20Minimal(_token1).balanceOf(address(this));\r\n        uint token2InitialBalance = IERC20Minimal(_token2).balanceOf(address(this));\r\n        \r\n        swapExactInputSingle(swapRouter,_token1, _token2,startBalance);\r\n        uint token2Balance = IERC20Minimal(_token2).balanceOf(address(this));\r\n        uint tradeableAmount = token2Balance - token2InitialBalance;\r\n        swapToken(Router2,_token2, _token1,tradeableAmount);\r\n        uint endBalance = IERC20Minimal(_token1).balanceOf(address(this));\r\n      // require(endBalance > startBalance, \"Trade Reverted, No Profit Made\");\r\n       profit= endBalance -startBalance;\r\n       emit TradeSucces(assest,base,profit,true);\r\n   }\r\n    function SushiwapToUniswapTrade(address _token1, address _token2) external onlyOwner {\r\n        uint startBalance = IERC20Minimal(_token1).balanceOf(address(this));\r\n        uint token2InitialBalance = IERC20Minimal(_token2).balanceOf(address(this));\r\n        \r\n        swapToken(Router2,_token1, _token2, startBalance);\r\n        uint token2Balance = IERC20Minimal(_token2).balanceOf(address(this));\r\n        uint tradeableAmount = token2Balance - token2InitialBalance;\r\n       swapExactInputSingle(swapRouter,_token2, _token1,tradeableAmount);\r\n        uint endBalance = IERC20Minimal(_token1).balanceOf(address(this));\r\n      // require(endBalance > startBalance, \"Trade Reverted, No Profit Made\");\r\n       profit= endBalance -startBalance;\r\n       emit TradeSucces(assest,base,profit,true);\r\n   }\r\n\r\n     function getBalance (address _tokenContractAddress) external view  returns (uint256) {\r\n\t\tuint balance = IERC20Minimal(_tokenContractAddress).balanceOf(address(this));\r\n\t\treturn balance;\r\n\t}\r\n\t\tfunction recoverEth() external onlyOwner {\r\n\t\tpayable(msg.sender).transfer(address(this).balance);\r\n\t}\r\n    \r\n    \r\n\tfunction recoverTokens(address tokenAddress) external onlyOwner {\r\n\t     IERC20Minimal token = IERC20Minimal(tokenAddress);\r\n\t\ttoken.transfer(msg.sender, token.balanceOf(address(this)));\r\n     \t}\r\n   \r\n     receive ()  payable external{\r\n      _balance[msg.sender] += msg.value;\r\n\r\n    }\r\n\r\n\r\n\r\n}",
  "sourcePath": "C:\\Users\\user\\Desktop\\web dev\\mevbot-arb\\contracts\\arbitragebot.sol",
  "compiler": {
    "name": "solc",
    "version": "0.8.16+commit.07a7930e.Emscripten.clang"
  },
  "schemaVersion": "3.4.9",
  "updatedAt": "2022-09-08T23:45:52.700Z",
  "devdoc": {
    "kind": "dev",
    "methods": {},
    "version": 1
  },
  "userdoc": {
    "kind": "user",
    "methods": {},
    "version": 1
  }
}